{
  "_format": "hh-sol-artifact-1",
  "contractName": "Token",
  "sourceName": "contracts/Token.sol",
  "abi": [
    {
      "inputs": [
        {
          "internalType": "string",
          "name": "_name",
          "type": "string"
        },
        {
          "internalType": "string",
          "name": "_symbol",
          "type": "string"
        },
        {
          "internalType": "uint8",
          "name": "_decimalValue",
          "type": "uint8"
        },
        {
          "internalType": "uint256",
          "name": "_feePercent",
          "type": "uint256"
        },
        {
          "internalType": "address",
          "name": "_interchainTokenService",
          "type": "address"
        }
      ],
      "stateMutability": "nonpayable",
      "type": "constructor"
    },
    {
      "inputs": [
        {
          "internalType": "address",
          "name": "spender",
          "type": "address"
        },
        {
          "internalType": "uint256",
          "name": "allowance",
          "type": "uint256"
        },
        {
          "internalType": "uint256",
          "name": "needed",
          "type": "uint256"
        }
      ],
      "name": "ERC20InsufficientAllowance",
      "type": "error"
    },
    {
      "inputs": [
        {
          "internalType": "address",
          "name": "sender",
          "type": "address"
        },
        {
          "internalType": "uint256",
          "name": "balance",
          "type": "uint256"
        },
        {
          "internalType": "uint256",
          "name": "needed",
          "type": "uint256"
        }
      ],
      "name": "ERC20InsufficientBalance",
      "type": "error"
    },
    {
      "inputs": [
        {
          "internalType": "address",
          "name": "approver",
          "type": "address"
        }
      ],
      "name": "ERC20InvalidApprover",
      "type": "error"
    },
    {
      "inputs": [
        {
          "internalType": "address",
          "name": "receiver",
          "type": "address"
        }
      ],
      "name": "ERC20InvalidReceiver",
      "type": "error"
    },
    {
      "inputs": [
        {
          "internalType": "address",
          "name": "sender",
          "type": "address"
        }
      ],
      "name": "ERC20InvalidSender",
      "type": "error"
    },
    {
      "inputs": [
        {
          "internalType": "address",
          "name": "spender",
          "type": "address"
        }
      ],
      "name": "ERC20InvalidSpender",
      "type": "error"
    },
    {
      "inputs": [
        {
          "internalType": "address",
          "name": "fromAccount",
          "type": "address"
        },
        {
          "internalType": "address",
          "name": "toAccount",
          "type": "address"
        },
        {
          "internalType": "uint256",
          "name": "accountRoles",
          "type": "uint256"
        }
      ],
      "name": "InvalidProposedRoles",
      "type": "error"
    },
    {
      "inputs": [
        {
          "internalType": "address",
          "name": "account",
          "type": "address"
        },
        {
          "internalType": "uint256",
          "name": "accountRoles",
          "type": "uint256"
        }
      ],
      "name": "MissingAllRoles",
      "type": "error"
    },
    {
      "inputs": [
        {
          "internalType": "address",
          "name": "account",
          "type": "address"
        },
        {
          "internalType": "uint256",
          "name": "accountRoles",
          "type": "uint256"
        }
      ],
      "name": "MissingAnyOfRoles",
      "type": "error"
    },
    {
      "inputs": [
        {
          "internalType": "address",
          "name": "account",
          "type": "address"
        },
        {
          "internalType": "uint8",
          "name": "role",
          "type": "uint8"
        }
      ],
      "name": "MissingRole",
      "type": "error"
    },
    {
      "anonymous": false,
      "inputs": [
        {
          "indexed": true,
          "internalType": "address",
          "name": "owner",
          "type": "address"
        },
        {
          "indexed": true,
          "internalType": "address",
          "name": "spender",
          "type": "address"
        },
        {
          "indexed": false,
          "internalType": "uint256",
          "name": "value",
          "type": "uint256"
        }
      ],
      "name": "Approval",
      "type": "event"
    },
    {
      "anonymous": false,
      "inputs": [
        {
          "indexed": true,
          "internalType": "address",
          "name": "account",
          "type": "address"
        },
        {
          "indexed": false,
          "internalType": "uint256",
          "name": "accountRoles",
          "type": "uint256"
        }
      ],
      "name": "RolesAdded",
      "type": "event"
    },
    {
      "anonymous": false,
      "inputs": [
        {
          "indexed": true,
          "internalType": "address",
          "name": "fromAccount",
          "type": "address"
        },
        {
          "indexed": true,
          "internalType": "address",
          "name": "toAccount",
          "type": "address"
        },
        {
          "indexed": false,
          "internalType": "uint256",
          "name": "accountRoles",
          "type": "uint256"
        }
      ],
      "name": "RolesProposed",
      "type": "event"
    },
    {
      "anonymous": false,
      "inputs": [
        {
          "indexed": true,
          "internalType": "address",
          "name": "account",
          "type": "address"
        },
        {
          "indexed": false,
          "internalType": "uint256",
          "name": "accountRoles",
          "type": "uint256"
        }
      ],
      "name": "RolesRemoved",
      "type": "event"
    },
    {
      "anonymous": false,
      "inputs": [
        {
          "indexed": true,
          "internalType": "address",
          "name": "from",
          "type": "address"
        },
        {
          "indexed": true,
          "internalType": "address",
          "name": "to",
          "type": "address"
        },
        {
          "indexed": false,
          "internalType": "uint256",
          "name": "value",
          "type": "uint256"
        }
      ],
      "name": "Transfer",
      "type": "event"
    },
    {
      "inputs": [
        {
          "internalType": "address",
          "name": "fromMinter",
          "type": "address"
        }
      ],
      "name": "acceptMintership",
      "outputs": [],
      "stateMutability": "nonpayable",
      "type": "function"
    },
    {
      "inputs": [
        {
          "internalType": "address",
          "name": "minter",
          "type": "address"
        }
      ],
      "name": "addMinter",
      "outputs": [],
      "stateMutability": "nonpayable",
      "type": "function"
    },
    {
      "inputs": [
        {
          "internalType": "address",
          "name": "owner",
          "type": "address"
        },
        {
          "internalType": "address",
          "name": "spender",
          "type": "address"
        }
      ],
      "name": "allowance",
      "outputs": [
        {
          "internalType": "uint256",
          "name": "",
          "type": "uint256"
        }
      ],
      "stateMutability": "view",
      "type": "function"
    },
    {
      "inputs": [
        {
          "internalType": "address",
          "name": "spender",
          "type": "address"
        },
        {
          "internalType": "uint256",
          "name": "value",
          "type": "uint256"
        }
      ],
      "name": "approve",
      "outputs": [
        {
          "internalType": "bool",
          "name": "",
          "type": "bool"
        }
      ],
      "stateMutability": "nonpayable",
      "type": "function"
    },
    {
      "inputs": [
        {
          "internalType": "address",
          "name": "account",
          "type": "address"
        }
      ],
      "name": "balanceOf",
      "outputs": [
        {
          "internalType": "uint256",
          "name": "",
          "type": "uint256"
        }
      ],
      "stateMutability": "view",
      "type": "function"
    },
    {
      "inputs": [
        {
          "internalType": "address",
          "name": "account",
          "type": "address"
        },
        {
          "internalType": "uint256",
          "name": "amount",
          "type": "uint256"
        }
      ],
      "name": "burn",
      "outputs": [],
      "stateMutability": "nonpayable",
      "type": "function"
    },
    {
      "inputs": [],
      "name": "decimals",
      "outputs": [
        {
          "internalType": "uint8",
          "name": "",
          "type": "uint8"
        }
      ],
      "stateMutability": "view",
      "type": "function"
    },
    {
      "inputs": [],
      "name": "feePercent",
      "outputs": [
        {
          "internalType": "uint256",
          "name": "",
          "type": "uint256"
        }
      ],
      "stateMutability": "view",
      "type": "function"
    },
    {
      "inputs": [
        {
          "internalType": "address",
          "name": "account",
          "type": "address"
        },
        {
          "internalType": "uint8",
          "name": "role",
          "type": "uint8"
        }
      ],
      "name": "hasRole",
      "outputs": [
        {
          "internalType": "bool",
          "name": "",
          "type": "bool"
        }
      ],
      "stateMutability": "view",
      "type": "function"
    },
    {
      "inputs": [],
      "name": "interchainTokenId",
      "outputs": [
        {
          "internalType": "bytes32",
          "name": "",
          "type": "bytes32"
        }
      ],
      "stateMutability": "view",
      "type": "function"
    },
    {
      "inputs": [],
      "name": "interchainTokenService",
      "outputs": [
        {
          "internalType": "address",
          "name": "",
          "type": "address"
        }
      ],
      "stateMutability": "view",
      "type": "function"
    },
    {
      "inputs": [
        {
          "internalType": "string",
          "name": "destinationChain",
          "type": "string"
        },
        {
          "internalType": "bytes",
          "name": "recipient",
          "type": "bytes"
        },
        {
          "internalType": "uint256",
          "name": "amount",
          "type": "uint256"
        },
        {
          "internalType": "bytes",
          "name": "metadata",
          "type": "bytes"
        }
      ],
      "name": "interchainTransfer",
      "outputs": [],
      "stateMutability": "payable",
      "type": "function"
    },
    {
      "inputs": [
        {
          "internalType": "address",
          "name": "sender",
          "type": "address"
        },
        {
          "internalType": "string",
          "name": "destinationChain",
          "type": "string"
        },
        {
          "internalType": "bytes",
          "name": "recipient",
          "type": "bytes"
        },
        {
          "internalType": "uint256",
          "name": "amount",
          "type": "uint256"
        },
        {
          "internalType": "bytes",
          "name": "metadata",
          "type": "bytes"
        }
      ],
      "name": "interchainTransferFrom",
      "outputs": [],
      "stateMutability": "payable",
      "type": "function"
    },
    {
      "inputs": [
        {
          "internalType": "address",
          "name": "addr",
          "type": "address"
        }
      ],
      "name": "isMinter",
      "outputs": [
        {
          "internalType": "bool",
          "name": "",
          "type": "bool"
        }
      ],
      "stateMutability": "view",
      "type": "function"
    },
    {
      "inputs": [
        {
          "internalType": "address",
          "name": "account",
          "type": "address"
        },
        {
          "internalType": "uint256",
          "name": "amount",
          "type": "uint256"
        }
      ],
      "name": "mint",
      "outputs": [],
      "stateMutability": "nonpayable",
      "type": "function"
    },
    {
      "inputs": [],
      "name": "name",
      "outputs": [
        {
          "internalType": "string",
          "name": "",
          "type": "string"
        }
      ],
      "stateMutability": "view",
      "type": "function"
    },
    {
      "inputs": [
        {
          "internalType": "address",
          "name": "minter_",
          "type": "address"
        }
      ],
      "name": "proposeMintership",
      "outputs": [],
      "stateMutability": "nonpayable",
      "type": "function"
    },
    {
      "inputs": [
        {
          "internalType": "uint256",
          "name": "_feePercent",
          "type": "uint256"
        }
      ],
      "name": "setFeePercent",
      "outputs": [],
      "stateMutability": "nonpayable",
      "type": "function"
    },
    {
      "inputs": [],
      "name": "symbol",
      "outputs": [
        {
          "internalType": "string",
          "name": "",
          "type": "string"
        }
      ],
      "stateMutability": "view",
      "type": "function"
    },
    {
      "inputs": [],
      "name": "totalSupply",
      "outputs": [
        {
          "internalType": "uint256",
          "name": "",
          "type": "uint256"
        }
      ],
      "stateMutability": "view",
      "type": "function"
    },
    {
      "inputs": [
        {
          "internalType": "address",
          "name": "to",
          "type": "address"
        },
        {
          "internalType": "uint256",
          "name": "value",
          "type": "uint256"
        }
      ],
      "name": "transfer",
      "outputs": [
        {
          "internalType": "bool",
          "name": "",
          "type": "bool"
        }
      ],
      "stateMutability": "nonpayable",
      "type": "function"
    },
    {
      "inputs": [
        {
          "internalType": "address",
          "name": "from",
          "type": "address"
        },
        {
          "internalType": "address",
          "name": "to",
          "type": "address"
        },
        {
          "internalType": "uint256",
          "name": "amount",
          "type": "uint256"
        }
      ],
      "name": "transferFrom",
      "outputs": [
        {
          "internalType": "bool",
          "name": "",
          "type": "bool"
        }
      ],
      "stateMutability": "nonpayable",
      "type": "function"
    },
    {
      "inputs": [
        {
          "internalType": "address",
          "name": "minter_",
          "type": "address"
        }
      ],
      "name": "transferMintership",
      "outputs": [],
      "stateMutability": "nonpayable",
      "type": "function"
    }
  ],
  "bytecode": "0x60c06040523480156200001157600080fd5b5060405162002c8d38038062002c8d83398181016040528101906200003791906200048c565b848481600390816200004a919062000793565b5080600490816200005c919062000793565b5050508260ff1660808160ff16815250508073ffffffffffffffffffffffffffffffffffffffff1660a08173ffffffffffffffffffffffffffffffffffffffff168152505081600681905550620000b933620000c460201b60201c565b505050505062000986565b620000ec8160006002811115620000e057620000df6200087a565b5b620000ef60201b60201c565b50565b62000108828260ff166001901b6200010c60201b60201c565b5050565b60008162000120846200018a60201b60201c565b179050620001358382620001aa60201b60201c565b8273ffffffffffffffffffffffffffffffffffffffff167f34e73c57659d4b6809b53db4feee9b007b892e978114eda420d2991aba150143836040516200017d9190620008ba565b60405180910390a2505050565b6000806200019e83620001c760201b60201c565b90508054915050919050565b6000620001bd83620001c760201b60201c565b9050818155505050565b60007fde9bdca322e1a848f72215bc15cf2c87fe7749145789a9ee281a2a6290af26ab82604051602001620001fe92919062000956565b604051602081830303815290604052805190602001209050919050565b6000604051905090565b600080fd5b600080fd5b600080fd5b600080fd5b6000601f19601f8301169050919050565b7f4e487b7100000000000000000000000000000000000000000000000000000000600052604160045260246000fd5b620002848262000239565b810181811067ffffffffffffffff82111715620002a657620002a56200024a565b5b80604052505050565b6000620002bb6200021b565b9050620002c9828262000279565b919050565b600067ffffffffffffffff821115620002ec57620002eb6200024a565b5b620002f78262000239565b9050602081019050919050565b60005b838110156200032457808201518184015260208101905062000307565b60008484015250505050565b6000620003476200034184620002ce565b620002af565b90508281526020810184848401111562000366576200036562000234565b5b6200037384828562000304565b509392505050565b600082601f8301126200039357620003926200022f565b5b8151620003a584826020860162000330565b91505092915050565b600060ff82169050919050565b620003c681620003ae565b8114620003d257600080fd5b50565b600081519050620003e681620003bb565b92915050565b6000819050919050565b6200040181620003ec565b81146200040d57600080fd5b50565b6000815190506200042181620003f6565b92915050565b600073ffffffffffffffffffffffffffffffffffffffff82169050919050565b6000620004548262000427565b9050919050565b620004668162000447565b81146200047257600080fd5b50565b60008151905062000486816200045b565b92915050565b600080600080600060a08688031215620004ab57620004aa62000225565b5b600086015167ffffffffffffffff811115620004cc57620004cb6200022a565b5b620004da888289016200037b565b955050602086015167ffffffffffffffff811115620004fe57620004fd6200022a565b5b6200050c888289016200037b565b94505060406200051f88828901620003d5565b9350506060620005328882890162000410565b9250506080620005458882890162000475565b9150509295509295909350565b600081519050919050565b7f4e487b7100000000000000000000000000000000000000000000000000000000600052602260045260246000fd5b60006002820490506001821680620005a557607f821691505b602082108103620005bb57620005ba6200055d565b5b50919050565b60008190508160005260206000209050919050565b60006020601f8301049050919050565b600082821b905092915050565b600060088302620006257fffffffffffffffffffffffffffffffffffffffffffffffffffffffffffffffff82620005e6565b620006318683620005e6565b95508019841693508086168417925050509392505050565b6000819050919050565b6000620006746200066e6200066884620003ec565b62000649565b620003ec565b9050919050565b6000819050919050565b620006908362000653565b620006a86200069f826200067b565b848454620005f3565b825550505050565b600090565b620006bf620006b0565b620006cc81848462000685565b505050565b5b81811015620006f457620006e8600082620006b5565b600181019050620006d2565b5050565b601f82111562000743576200070d81620005c1565b6200071884620005d6565b8101602085101562000728578190505b620007406200073785620005d6565b830182620006d1565b50505b505050565b600082821c905092915050565b6000620007686000198460080262000748565b1980831691505092915050565b600062000783838362000755565b9150826002028217905092915050565b6200079e8262000552565b67ffffffffffffffff811115620007ba57620007b96200024a565b5b620007c682546200058c565b620007d3828285620006f8565b600060209050601f8311600181146200080b5760008415620007f6578287015190505b62000802858262000775565b86555062000872565b601f1984166200081b86620005c1565b60005b8281101562000845578489015182556001820191506020850194506020810190506200081e565b8683101562000865578489015162000861601f89168262000755565b8355505b6001600288020188555050505b505050505050565b7f4e487b7100000000000000000000000000000000000000000000000000000000600052602160045260246000fd5b620008b481620003ec565b82525050565b6000602082019050620008d16000830184620008a9565b92915050565b6000819050919050565b6000819050919050565b62000900620008fa82620008d7565b620008e1565b82525050565b60008160601b9050919050565b6000620009208262000906565b9050919050565b6000620009348262000913565b9050919050565b620009506200094a8262000447565b62000927565b82525050565b6000620009648285620008eb565b6020820191506200097682846200093b565b6014820191508190509392505050565b60805160a0516122e1620009ac600039600061062d015260006106c201526122e16000f3fe6080604052600436106101405760003560e01c806395a8c58d116100b6578063a9059cbb1161006f578063a9059cbb1461044f578063aa271e1a1461048c578063b5ef694d146104c9578063bc0ba3c5146104f2578063cf86a95a1461050e578063dd62ed3e1461053757610140565b806395a8c58d1461035057806395d89b411461038d578063983b2d56146103b85780639c176677146103e15780639dc29fac1461040a578063a60fee371461043357610140565b806323b872dd1161010857806323b872dd1461022e578063313ce5671461026b57806340c10f191461029657806370a08231146102bf5780637ce3489b146102fc5780637fd6f15c1461032557610140565b806306fdde0314610145578063095ea7b31461017057806309c6bed9146101ad578063129d8188146101d857806318160ddd14610203575b600080fd5b34801561015157600080fd5b5061015a610574565b6040516101679190611841565b60405180910390f35b34801561017c57600080fd5b5061019760048036038101906101929190611901565b610606565b6040516101a4919061195c565b60405180910390f35b3480156101b957600080fd5b506101c2610629565b6040516101cf9190611986565b60405180910390f35b3480156101e457600080fd5b506101ed610651565b6040516101fa91906119ba565b60405180910390f35b34801561020f57600080fd5b5061021861065b565b60405161022591906119e4565b60405180910390f35b34801561023a57600080fd5b50610255600480360381019061025091906119ff565b610665565b604051610262919061195c565b60405180910390f35b34801561027757600080fd5b506102806106be565b60405161028d9190611a6e565b60405180910390f35b3480156102a257600080fd5b506102bd60048036038101906102b89190611901565b6106e6565b005b3480156102cb57600080fd5b506102e660048036038101906102e19190611a89565b61075e565b6040516102f391906119e4565b60405180910390f35b34801561030857600080fd5b50610323600480360381019061031e9190611ab6565b6107a6565b005b34801561033157600080fd5b5061033a61085e565b60405161034791906119e4565b60405180910390f35b34801561035c57600080fd5b5061037760048036038101906103729190611b0f565b610864565b604051610384919061195c565b60405180910390f35b34801561039957600080fd5b506103a2610880565b6040516103af9190611841565b60405180910390f35b3480156103c457600080fd5b506103df60048036038101906103da9190611a89565b610912565b005b3480156103ed57600080fd5b5061040860048036038101906104039190611a89565b61091e565b005b34801561041657600080fd5b50610431600480360381019061042c9190611901565b61093f565b005b61044d60048036038101906104489190611c0a565b6109b7565b005b34801561045b57600080fd5b5061047660048036038101906104719190611901565b610a66565b604051610483919061195c565b60405180910390f35b34801561049857600080fd5b506104b360048036038101906104ae9190611a89565b610a89565b6040516104c0919061195c565b60405180910390f35b3480156104d557600080fd5b506104f060048036038101906104eb9190611a89565b610aaf565b005b61050c60048036038101906105079190611ce6565b610b3a565b005b34801561051a57600080fd5b5061053560048036038101906105309190611a89565b610be3565b005b34801561054357600080fd5b5061055e60048036038101906105599190611daf565b610c6e565b60405161056b91906119e4565b60405180910390f35b60606003805461058390611e1e565b80601f01602080910402602001604051908101604052809291908181526020018280546105af90611e1e565b80156105fc5780601f106105d1576101008083540402835291602001916105fc565b820191906000526020600020905b8154815290600101906020018083116105df57829003601f168201915b5050505050905090565b600080610611610cf5565b905061061e818585610cfd565b600191505092915050565b60007f0000000000000000000000000000000000000000000000000000000000000000905090565b6000600554905090565b6000600254905090565b600080670de0b6b3a76400006006548461067f9190611e7e565b6106899190611eef565b9050600081846106999190611f20565b90506106a6868683610d0f565b506106b18683610d3e565b6001925050509392505050565b60007f0000000000000000000000000000000000000000000000000000000000000000905090565b600060028111156106fa576106f9611f54565b5b61070c61070633610dc0565b82610dd8565b61074f5733816040517fbb6c1639000000000000000000000000000000000000000000000000000000008152600401610746929190611f83565b60405180910390fd5b6107598383610def565b505050565b60008060008373ffffffffffffffffffffffffffffffffffffffff1673ffffffffffffffffffffffffffffffffffffffff168152602001908152602001600020549050919050565b600060028111156107ba576107b9611f54565b5b6107cc6107c633610dc0565b82610dd8565b61080f5733816040517fbb6c1639000000000000000000000000000000000000000000000000000000008152600401610806929190611f83565b60405180910390fd5b6064821115610853576040517f08c379a000000000000000000000000000000000000000000000000000000000815260040161084a90611ff8565b60405180910390fd5b816006819055505050565b60065481565b600061087861087284610dc0565b83610dd8565b905092915050565b60606004805461088f90611e1e565b80601f01602080910402602001604051908101604052809291908181526020018280546108bb90611e1e565b80156109085780601f106108dd57610100808354040283529160200191610908565b820191906000526020600020905b8154815290600101906020018083116108eb57829003601f168201915b5050505050905090565b61091b81610e71565b50565b61093c81336000600281111561093757610936611f54565b5b610e91565b50565b6000600281111561095357610952611f54565b5b61096561095f33610dc0565b82610dd8565b6109a85733816040517fbb6c163900000000000000000000000000000000000000000000000000000000815260040161099f929190611f83565b60405180910390fd5b6109b28383610d3e565b505050565b6109c2883385610ea8565b6109d28888888888888888610efa565b6109da610629565b73ffffffffffffffffffffffffffffffffffffffff166370756cde346109fe610651565b8b8b8b8b8b8b8b8b6040518b63ffffffff1660e01b8152600401610a2a99989796959493929190612092565b6000604051808303818588803b158015610a4357600080fd5b505af1158015610a57573d6000803e3d6000fd5b50505050505050505050505050565b600080610a71610cf5565b9050610a7e818585610f04565b600191505092915050565b6000610aa88260006002811115610aa357610aa2611f54565b5b610864565b9050919050565b60006002811115610ac357610ac2611f54565b5b610ad5610acf33610dc0565b82610dd8565b610b185733816040517fbb6c1639000000000000000000000000000000000000000000000000000000008152600401610b0f929190611f83565b60405180910390fd5b610b36338360006002811115610b3157610b30611f54565b5b610ff8565b5050565b6000339050610b4f3389898989898989610efa565b610b57610629565b73ffffffffffffffffffffffffffffffffffffffff166370756cde34610b7b610651565b848c8c8c8c8c8c8c6040518b63ffffffff1660e01b8152600401610ba799989796959493929190612092565b6000604051808303818588803b158015610bc057600080fd5b505af1158015610bd4573d6000803e3d6000fd5b50505050505050505050505050565b60006002811115610bf757610bf6611f54565b5b610c09610c0333610dc0565b82610dd8565b610c4c5733816040517fbb6c1639000000000000000000000000000000000000000000000000000000008152600401610c43929190611f83565b60405180910390fd5b610c6a338360006002811115610c6557610c64611f54565b5b61100f565b5050565b6000600160008473ffffffffffffffffffffffffffffffffffffffff1673ffffffffffffffffffffffffffffffffffffffff16815260200190815260200160002060008373ffffffffffffffffffffffffffffffffffffffff1673ffffffffffffffffffffffffffffffffffffffff16815260200190815260200160002054905092915050565b600033905090565b610d0a8383836001611026565b505050565b600080610d1a610cf5565b9050610d27858285610ea8565b610d32858585610f04565b60019150509392505050565b600073ffffffffffffffffffffffffffffffffffffffff168273ffffffffffffffffffffffffffffffffffffffff1603610db05760006040517f96c6fd1e000000000000000000000000000000000000000000000000000000008152600401610da79190611986565b60405180910390fd5b610dbc826000836111fd565b5050565b600080610dcc83611422565b90508054915050919050565b6000808260ff166001901b84161415905092915050565b600073ffffffffffffffffffffffffffffffffffffffff168273ffffffffffffffffffffffffffffffffffffffff1603610e615760006040517fec442f05000000000000000000000000000000000000000000000000000000008152600401610e589190611986565b60405180910390fd5b610e6d600083836111fd565b5050565b610e8e8160006002811115610e8957610e88611f54565b5b611474565b50565b610ea383838360ff166001901b611489565b505050565b6000610eb48484610c6e565b90507fffffffffffffffffffffffffffffffffffffffffffffffffffffffffffffffff8114610ef457610ef384848484610eee9190611f20565b610cfd565b5b50505050565b5050505050505050565b600073ffffffffffffffffffffffffffffffffffffffff168373ffffffffffffffffffffffffffffffffffffffff1603610f765760006040517f96c6fd1e000000000000000000000000000000000000000000000000000000008152600401610f6d9190611986565b60405180910390fd5b600073ffffffffffffffffffffffffffffffffffffffff168273ffffffffffffffffffffffffffffffffffffffff1603610fe85760006040517fec442f05000000000000000000000000000000000000000000000000000000008152600401610fdf9190611986565b60405180910390fd5b610ff38383836111fd565b505050565b61100a83838360ff166001901b6114f6565b505050565b61102183838360ff166001901b6115c0565b505050565b600073ffffffffffffffffffffffffffffffffffffffff168473ffffffffffffffffffffffffffffffffffffffff16036110985760006040517fe602df0500000000000000000000000000000000000000000000000000000000815260040161108f9190611986565b60405180910390fd5b600073ffffffffffffffffffffffffffffffffffffffff168373ffffffffffffffffffffffffffffffffffffffff160361110a5760006040517f94280d620000000000000000000000000000000000000000000000000000000081526004016111019190611986565b60405180910390fd5b81600160008673ffffffffffffffffffffffffffffffffffffffff1673ffffffffffffffffffffffffffffffffffffffff16815260200190815260200160002060008573ffffffffffffffffffffffffffffffffffffffff1673ffffffffffffffffffffffffffffffffffffffff1681526020019081526020016000208190555080156111f7578273ffffffffffffffffffffffffffffffffffffffff168473ffffffffffffffffffffffffffffffffffffffff167f8c5be1e5ebec7d5bd14f71427d1e84f3dd0314c0f7b2291e5b200ac8c7c3b925846040516111ee91906119e4565b60405180910390a35b50505050565b600073ffffffffffffffffffffffffffffffffffffffff168373ffffffffffffffffffffffffffffffffffffffff160361124f578060026000828254611243919061210e565b92505081905550611322565b60008060008573ffffffffffffffffffffffffffffffffffffffff1673ffffffffffffffffffffffffffffffffffffffff168152602001908152602001600020549050818110156112db578381836040517fe450d38c0000000000000000000000000000000000000000000000000000000081526004016112d293929190612142565b60405180910390fd5b8181036000808673ffffffffffffffffffffffffffffffffffffffff1673ffffffffffffffffffffffffffffffffffffffff16815260200190815260200160002081905550505b600073ffffffffffffffffffffffffffffffffffffffff168273ffffffffffffffffffffffffffffffffffffffff160361136b57806002600082825403925050819055506113b8565b806000808473ffffffffffffffffffffffffffffffffffffffff1673ffffffffffffffffffffffffffffffffffffffff168152602001908152602001600020600082825401925050819055505b8173ffffffffffffffffffffffffffffffffffffffff168373ffffffffffffffffffffffffffffffffffffffff167fddf252ad1be2c89b69c2b068fc378daa952ba7f163c4a11628f55a4df523b3ef8360405161141591906119e4565b60405180910390a3505050565b60007fde9bdca322e1a848f72215bc15cf2c87fe7749145789a9ee281a2a6290af26ab826040516020016114579291906121e2565b604051602081830303815290604052805190602001209050919050565b611485828260ff166001901b61162e565b5050565b80611494848461169a565b146114da578282826040517f6004fe400000000000000000000000000000000000000000000000000000000081526004016114d19392919061220e565b60405180910390fd5b6114e6838360006116b4565b6114f18383836115c0565b505050565b61150861150284610dc0565b826116cb565b61154b5782816040517f7fa6fbb4000000000000000000000000000000000000000000000000000000008152600401611542929190612245565b60405180910390fd5b6115568383836116b4565b8173ffffffffffffffffffffffffffffffffffffffff168373ffffffffffffffffffffffffffffffffffffffff167ff7158d1591c2cf17c0e6b9459d86365c47fe0969c79f40ef49e0c437d8f39914836040516115b391906119e4565b60405180910390a3505050565b6115d26115cc84610dc0565b826116cb565b6116155782816040517f7fa6fbb400000000000000000000000000000000000000000000000000000000815260040161160c929190612245565b60405180910390fd5b61161f83826116da565b611629828261162e565b505050565b60008161163a84610dc0565b1790506116478382611747565b8273ffffffffffffffffffffffffffffffffffffffff167f34e73c57659d4b6809b53db4feee9b007b892e978114eda420d2991aba1501438360405161168d91906119e4565b60405180910390a2505050565b6000806116a7848461175c565b9050805491505092915050565b60006116c0848461175c565b905081815550505050565b60008182841614905092915050565b600081196116e784610dc0565b1690506116f48382611747565b8273ffffffffffffffffffffffffffffffffffffffff167fccf920c8facee98a9c2a6c6124f2857b87b17e9f3a819bfcc6945196ee77366b8360405161173a91906119e4565b60405180910390a2505050565b600061175283611422565b9050818155505050565b60007ff96e07b2f4fbb81c31567d2b261589af429e98f0958d53f7e6ad5d63aea0ab7c83836040516020016117939392919061226e565b60405160208183030381529060405280519060200120905092915050565b600081519050919050565b600082825260208201905092915050565b60005b838110156117eb5780820151818401526020810190506117d0565b60008484015250505050565b6000601f19601f8301169050919050565b6000611813826117b1565b61181d81856117bc565b935061182d8185602086016117cd565b611836816117f7565b840191505092915050565b6000602082019050818103600083015261185b8184611808565b905092915050565b600080fd5b600080fd5b600073ffffffffffffffffffffffffffffffffffffffff82169050919050565b60006118988261186d565b9050919050565b6118a88161188d565b81146118b357600080fd5b50565b6000813590506118c58161189f565b92915050565b6000819050919050565b6118de816118cb565b81146118e957600080fd5b50565b6000813590506118fb816118d5565b92915050565b6000806040838503121561191857611917611863565b5b6000611926858286016118b6565b9250506020611937858286016118ec565b9150509250929050565b60008115159050919050565b61195681611941565b82525050565b6000602082019050611971600083018461194d565b92915050565b6119808161188d565b82525050565b600060208201905061199b6000830184611977565b92915050565b6000819050919050565b6119b4816119a1565b82525050565b60006020820190506119cf60008301846119ab565b92915050565b6119de816118cb565b82525050565b60006020820190506119f960008301846119d5565b92915050565b600080600060608486031215611a1857611a17611863565b5b6000611a26868287016118b6565b9350506020611a37868287016118b6565b9250506040611a48868287016118ec565b9150509250925092565b600060ff82169050919050565b611a6881611a52565b82525050565b6000602082019050611a836000830184611a5f565b92915050565b600060208284031215611a9f57611a9e611863565b5b6000611aad848285016118b6565b91505092915050565b600060208284031215611acc57611acb611863565b5b6000611ada848285016118ec565b91505092915050565b611aec81611a52565b8114611af757600080fd5b50565b600081359050611b0981611ae3565b92915050565b60008060408385031215611b2657611b25611863565b5b6000611b34858286016118b6565b9250506020611b4585828601611afa565b9150509250929050565b600080fd5b600080fd5b600080fd5b60008083601f840112611b7457611b73611b4f565b5b8235905067ffffffffffffffff811115611b9157611b90611b54565b5b602083019150836001820283011115611bad57611bac611b59565b5b9250929050565b60008083601f840112611bca57611bc9611b4f565b5b8235905067ffffffffffffffff811115611be757611be6611b54565b5b602083019150836001820283011115611c0357611c02611b59565b5b9250929050565b60008060008060008060008060a0898b031215611c2a57611c29611863565b5b6000611c388b828c016118b6565b985050602089013567ffffffffffffffff811115611c5957611c58611868565b5b611c658b828c01611b5e565b9750975050604089013567ffffffffffffffff811115611c8857611c87611868565b5b611c948b828c01611bb4565b95509550506060611ca78b828c016118ec565b935050608089013567ffffffffffffffff811115611cc857611cc7611868565b5b611cd48b828c01611bb4565b92509250509295985092959890939650565b60008060008060008060006080888a031215611d0557611d04611863565b5b600088013567ffffffffffffffff811115611d2357611d22611868565b5b611d2f8a828b01611b5e565b9750975050602088013567ffffffffffffffff811115611d5257611d51611868565b5b611d5e8a828b01611bb4565b95509550506040611d718a828b016118ec565b935050606088013567ffffffffffffffff811115611d9257611d91611868565b5b611d9e8a828b01611bb4565b925092505092959891949750929550565b60008060408385031215611dc657611dc5611863565b5b6000611dd4858286016118b6565b9250506020611de5858286016118b6565b9150509250929050565b7f4e487b7100000000000000000000000000000000000000000000000000000000600052602260045260246000fd5b60006002820490506001821680611e3657607f821691505b602082108103611e4957611e48611def565b5b50919050565b7f4e487b7100000000000000000000000000000000000000000000000000000000600052601160045260246000fd5b6000611e89826118cb565b9150611e94836118cb565b9250828202611ea2816118cb565b91508282048414831517611eb957611eb8611e4f565b5b5092915050565b7f4e487b7100000000000000000000000000000000000000000000000000000000600052601260045260246000fd5b6000611efa826118cb565b9150611f05836118cb565b925082611f1557611f14611ec0565b5b828204905092915050565b6000611f2b826118cb565b9150611f36836118cb565b9250828203905081811115611f4e57611f4d611e4f565b5b92915050565b7f4e487b7100000000000000000000000000000000000000000000000000000000600052602160045260246000fd5b6000604082019050611f986000830185611977565b611fa56020830184611a5f565b9392505050565b7f4665652070657263656e7420746f6f2068696768000000000000000000000000600082015250565b6000611fe26014836117bc565b9150611fed82611fac565b602082019050919050565b6000602082019050818103600083015261201181611fd5565b9050919050565b82818337600083830152505050565b600061203383856117bc565b9350612040838584612018565b612049836117f7565b840190509392505050565b600082825260208201905092915050565b60006120718385612054565b935061207e838584612018565b612087836117f7565b840190509392505050565b600060c0820190506120a7600083018c6119ab565b6120b4602083018b611977565b81810360408301526120c781898b612027565b905081810360608301526120dc818789612065565b90506120eb60808301866119d5565b81810360a08301526120fe818486612065565b90509a9950505050505050505050565b6000612119826118cb565b9150612124836118cb565b925082820190508082111561213c5761213b611e4f565b5b92915050565b60006060820190506121576000830186611977565b61216460208301856119d5565b61217160408301846119d5565b949350505050565b6000819050919050565b61219461218f826119a1565b612179565b82525050565b60008160601b9050919050565b60006121b28261219a565b9050919050565b60006121c4826121a7565b9050919050565b6121dc6121d78261188d565b6121b9565b82525050565b60006121ee8285612183565b6020820191506121fe82846121cb565b6014820191508190509392505050565b60006060820190506122236000830186611977565b6122306020830185611977565b61223d60408301846119d5565b949350505050565b600060408201905061225a6000830185611977565b61226760208301846119d5565b9392505050565b600061227a8286612183565b60208201915061228a82856121cb565b60148201915061229a82846121cb565b60148201915081905094935050505056fea26469706673582212201f4c62f26344ce4d90043e3e9afbf81be552c0eada25ccbb51ebf2d76938bfe764736f6c63430008180033",
  "linkReferences": {},
  "deployedLinkReferences": {}
}