{
  "@axelar-network/interchain-token-service/contracts/utils/Minter.sol": {
    "Minter": {
      "abi": [
        {
          "inputs": [
            {
              "internalType": "address",
              "name": "fromAccount",
              "type": "address"
            },
            {
              "internalType": "address",
              "name": "toAccount",
              "type": "address"
            },
            {
              "internalType": "uint256",
              "name": "accountRoles",
              "type": "uint256"
            }
          ],
          "name": "InvalidProposedRoles",
          "type": "error"
        },
        {
          "inputs": [
            {
              "internalType": "address",
              "name": "account",
              "type": "address"
            },
            {
              "internalType": "uint256",
              "name": "accountRoles",
              "type": "uint256"
            }
          ],
          "name": "MissingAllRoles",
          "type": "error"
        },
        {
          "inputs": [
            {
              "internalType": "address",
              "name": "account",
              "type": "address"
            },
            {
              "internalType": "uint256",
              "name": "accountRoles",
              "type": "uint256"
            }
          ],
          "name": "MissingAnyOfRoles",
          "type": "error"
        },
        {
          "inputs": [
            {
              "internalType": "address",
              "name": "account",
              "type": "address"
            },
            {
              "internalType": "uint8",
              "name": "role",
              "type": "uint8"
            }
          ],
          "name": "MissingRole",
          "type": "error"
        },
        {
          "anonymous": false,
          "inputs": [
            {
              "indexed": true,
              "internalType": "address",
              "name": "account",
              "type": "address"
            },
            {
              "indexed": false,
              "internalType": "uint256",
              "name": "accountRoles",
              "type": "uint256"
            }
          ],
          "name": "RolesAdded",
          "type": "event"
        },
        {
          "anonymous": false,
          "inputs": [
            {
              "indexed": true,
              "internalType": "address",
              "name": "fromAccount",
              "type": "address"
            },
            {
              "indexed": true,
              "internalType": "address",
              "name": "toAccount",
              "type": "address"
            },
            {
              "indexed": false,
              "internalType": "uint256",
              "name": "accountRoles",
              "type": "uint256"
            }
          ],
          "name": "RolesProposed",
          "type": "event"
        },
        {
          "anonymous": false,
          "inputs": [
            {
              "indexed": true,
              "internalType": "address",
              "name": "account",
              "type": "address"
            },
            {
              "indexed": false,
              "internalType": "uint256",
              "name": "accountRoles",
              "type": "uint256"
            }
          ],
          "name": "RolesRemoved",
          "type": "event"
        },
        {
          "inputs": [
            {
              "internalType": "address",
              "name": "fromMinter",
              "type": "address"
            }
          ],
          "name": "acceptMintership",
          "outputs": [],
          "stateMutability": "nonpayable",
          "type": "function"
        },
        {
          "inputs": [
            {
              "internalType": "address",
              "name": "account",
              "type": "address"
            },
            {
              "internalType": "uint8",
              "name": "role",
              "type": "uint8"
            }
          ],
          "name": "hasRole",
          "outputs": [
            {
              "internalType": "bool",
              "name": "",
              "type": "bool"
            }
          ],
          "stateMutability": "view",
          "type": "function"
        },
        {
          "inputs": [
            {
              "internalType": "address",
              "name": "addr",
              "type": "address"
            }
          ],
          "name": "isMinter",
          "outputs": [
            {
              "internalType": "bool",
              "name": "",
              "type": "bool"
            }
          ],
          "stateMutability": "view",
          "type": "function"
        },
        {
          "inputs": [
            {
              "internalType": "address",
              "name": "minter_",
              "type": "address"
            }
          ],
          "name": "proposeMintership",
          "outputs": [],
          "stateMutability": "nonpayable",
          "type": "function"
        },
        {
          "inputs": [
            {
              "internalType": "address",
              "name": "minter_",
              "type": "address"
            }
          ],
          "name": "transferMintership",
          "outputs": [],
          "stateMutability": "nonpayable",
          "type": "function"
        }
      ],
      "evm": {
        "bytecode": {
          "linkReferences": {},
          "object": "608060405234801561001057600080fd5b506109d2806100206000396000f3fe608060405234801561001057600080fd5b50600436106100575760003560e01c806395a8c58d1461005c5780639c1766771461008c578063aa271e1a146100a8578063b5ef694d146100d8578063cf86a95a146100f4575b600080fd5b61007660048036038101906100719190610713565b610110565b604051610083919061076e565b60405180910390f35b6100a660048036038101906100a19190610789565b61012c565b005b6100c260048036038101906100bd9190610789565b61014d565b6040516100cf919061076e565b60405180910390f35b6100f260048036038101906100ed9190610789565b610173565b005b61010e60048036038101906101099190610789565b6101fe565b005b600061012461011e84610289565b836102a1565b905092915050565b61014a813360006002811115610145576101446107b6565b5b6102b8565b50565b600061016c8260006002811115610167576101666107b6565b5b610110565b9050919050565b60006002811115610187576101866107b6565b5b61019961019333610289565b826102a1565b6101dc5733816040517fbb6c16390000000000000000000000000000000000000000000000000000000081526004016101d3929190610803565b60405180910390fd5b6101fa3383600060028111156101f5576101f46107b6565b5b6102cf565b5050565b60006002811115610212576102116107b6565b5b61022461021e33610289565b826102a1565b6102675733816040517fbb6c163900000000000000000000000000000000000000000000000000000000815260040161025e929190610803565b60405180910390fd5b6102853383600060028111156102805761027f6107b6565b5b6102e6565b5050565b600080610295836102fd565b90508054915050919050565b6000808260ff166001901b84161415905092915050565b6102ca83838360ff166001901b61034f565b505050565b6102e183838360ff166001901b6103bc565b505050565b6102f883838360ff166001901b610486565b505050565b60007fde9bdca322e1a848f72215bc15cf2c87fe7749145789a9ee281a2a6290af26ab8260405160200161033292919061089f565b604051602081830303815290604052805190602001209050919050565b8061035a84846104f4565b146103a0578282826040517f6004fe40000000000000000000000000000000000000000000000000000000008152600401610397939291906108e4565b60405180910390fd5b6103ac8383600061050e565b6103b7838383610486565b505050565b6103ce6103c884610289565b82610525565b6104115782816040517f7fa6fbb400000000000000000000000000000000000000000000000000000000815260040161040892919061091b565b60405180910390fd5b61041c83838361050e565b8173ffffffffffffffffffffffffffffffffffffffff168373ffffffffffffffffffffffffffffffffffffffff167ff7158d1591c2cf17c0e6b9459d86365c47fe0969c79f40ef49e0c437d8f39914836040516104799190610944565b60405180910390a3505050565b61049861049284610289565b82610525565b6104db5782816040517f7fa6fbb40000000000000000000000000000000000000000000000000000000081526004016104d292919061091b565b60405180910390fd5b6104e58382610534565b6104ef82826105a1565b505050565b600080610501848461060d565b9050805491505092915050565b600061051a848461060d565b905081815550505050565b60008182841614905092915050565b6000811961054184610289565b16905061054e8382610662565b8273ffffffffffffffffffffffffffffffffffffffff167fccf920c8facee98a9c2a6c6124f2857b87b17e9f3a819bfcc6945196ee77366b836040516105949190610944565b60405180910390a2505050565b6000816105ad84610289565b1790506105ba8382610662565b8273ffffffffffffffffffffffffffffffffffffffff167f34e73c57659d4b6809b53db4feee9b007b892e978114eda420d2991aba150143836040516106009190610944565b60405180910390a2505050565b60007ff96e07b2f4fbb81c31567d2b261589af429e98f0958d53f7e6ad5d63aea0ab7c83836040516020016106449392919061095f565b60405160208183030381529060405280519060200120905092915050565b600061066d836102fd565b9050818155505050565b600080fd5b600073ffffffffffffffffffffffffffffffffffffffff82169050919050565b60006106a78261067c565b9050919050565b6106b78161069c565b81146106c257600080fd5b50565b6000813590506106d4816106ae565b92915050565b600060ff82169050919050565b6106f0816106da565b81146106fb57600080fd5b50565b60008135905061070d816106e7565b92915050565b6000806040838503121561072a57610729610677565b5b6000610738858286016106c5565b9250506020610749858286016106fe565b9150509250929050565b60008115159050919050565b61076881610753565b82525050565b6000602082019050610783600083018461075f565b92915050565b60006020828403121561079f5761079e610677565b5b60006107ad848285016106c5565b91505092915050565b7f4e487b7100000000000000000000000000000000000000000000000000000000600052602160045260246000fd5b6107ee8161069c565b82525050565b6107fd816106da565b82525050565b600060408201905061081860008301856107e5565b61082560208301846107f4565b9392505050565b6000819050919050565b6000819050919050565b61085161084c8261082c565b610836565b82525050565b60008160601b9050919050565b600061086f82610857565b9050919050565b600061088182610864565b9050919050565b6108996108948261069c565b610876565b82525050565b60006108ab8285610840565b6020820191506108bb8284610888565b6014820191508190509392505050565b6000819050919050565b6108de816108cb565b82525050565b60006060820190506108f960008301866107e5565b61090660208301856107e5565b61091360408301846108d5565b949350505050565b600060408201905061093060008301856107e5565b61093d60208301846108d5565b9392505050565b600060208201905061095960008301846108d5565b92915050565b600061096b8286610840565b60208201915061097b8285610888565b60148201915061098b8284610888565b60148201915081905094935050505056fea26469706673582212202619d09e8017603744585079873e282723ee4284d13c26b6ede58942a9541e3164736f6c63430008180033",
          "opcodes": "PUSH1 0x80 PUSH1 0x40 MSTORE CALLVALUE DUP1 ISZERO PUSH2 0x10 JUMPI PUSH1 0x0 DUP1 REVERT JUMPDEST POP PUSH2 0x9D2 DUP1 PUSH2 0x20 PUSH1 0x0 CODECOPY PUSH1 0x0 RETURN INVALID PUSH1 0x80 PUSH1 0x40 MSTORE CALLVALUE DUP1 ISZERO PUSH2 0x10 JUMPI PUSH1 0x0 DUP1 REVERT JUMPDEST POP PUSH1 0x4 CALLDATASIZE LT PUSH2 0x57 JUMPI PUSH1 0x0 CALLDATALOAD PUSH1 0xE0 SHR DUP1 PUSH4 0x95A8C58D EQ PUSH2 0x5C JUMPI DUP1 PUSH4 0x9C176677 EQ PUSH2 0x8C JUMPI DUP1 PUSH4 0xAA271E1A EQ PUSH2 0xA8 JUMPI DUP1 PUSH4 0xB5EF694D EQ PUSH2 0xD8 JUMPI DUP1 PUSH4 0xCF86A95A EQ PUSH2 0xF4 JUMPI JUMPDEST PUSH1 0x0 DUP1 REVERT JUMPDEST PUSH2 0x76 PUSH1 0x4 DUP1 CALLDATASIZE SUB DUP2 ADD SWAP1 PUSH2 0x71 SWAP2 SWAP1 PUSH2 0x713 JUMP JUMPDEST PUSH2 0x110 JUMP JUMPDEST PUSH1 0x40 MLOAD PUSH2 0x83 SWAP2 SWAP1 PUSH2 0x76E JUMP JUMPDEST PUSH1 0x40 MLOAD DUP1 SWAP2 SUB SWAP1 RETURN JUMPDEST PUSH2 0xA6 PUSH1 0x4 DUP1 CALLDATASIZE SUB DUP2 ADD SWAP1 PUSH2 0xA1 SWAP2 SWAP1 PUSH2 0x789 JUMP JUMPDEST PUSH2 0x12C JUMP JUMPDEST STOP JUMPDEST PUSH2 0xC2 PUSH1 0x4 DUP1 CALLDATASIZE SUB DUP2 ADD SWAP1 PUSH2 0xBD SWAP2 SWAP1 PUSH2 0x789 JUMP JUMPDEST PUSH2 0x14D JUMP JUMPDEST PUSH1 0x40 MLOAD PUSH2 0xCF SWAP2 SWAP1 PUSH2 0x76E JUMP JUMPDEST PUSH1 0x40 MLOAD DUP1 SWAP2 SUB SWAP1 RETURN JUMPDEST PUSH2 0xF2 PUSH1 0x4 DUP1 CALLDATASIZE SUB DUP2 ADD SWAP1 PUSH2 0xED SWAP2 SWAP1 PUSH2 0x789 JUMP JUMPDEST PUSH2 0x173 JUMP JUMPDEST STOP JUMPDEST PUSH2 0x10E PUSH1 0x4 DUP1 CALLDATASIZE SUB DUP2 ADD SWAP1 PUSH2 0x109 SWAP2 SWAP1 PUSH2 0x789 JUMP JUMPDEST PUSH2 0x1FE JUMP JUMPDEST STOP JUMPDEST PUSH1 0x0 PUSH2 0x124 PUSH2 0x11E DUP5 PUSH2 0x289 JUMP JUMPDEST DUP4 PUSH2 0x2A1 JUMP JUMPDEST SWAP1 POP SWAP3 SWAP2 POP POP JUMP JUMPDEST PUSH2 0x14A DUP2 CALLER PUSH1 0x0 PUSH1 0x2 DUP2 GT ISZERO PUSH2 0x145 JUMPI PUSH2 0x144 PUSH2 0x7B6 JUMP JUMPDEST JUMPDEST PUSH2 0x2B8 JUMP JUMPDEST POP JUMP JUMPDEST PUSH1 0x0 PUSH2 0x16C DUP3 PUSH1 0x0 PUSH1 0x2 DUP2 GT ISZERO PUSH2 0x167 JUMPI PUSH2 0x166 PUSH2 0x7B6 JUMP JUMPDEST JUMPDEST PUSH2 0x110 JUMP JUMPDEST SWAP1 POP SWAP2 SWAP1 POP JUMP JUMPDEST PUSH1 0x0 PUSH1 0x2 DUP2 GT ISZERO PUSH2 0x187 JUMPI PUSH2 0x186 PUSH2 0x7B6 JUMP JUMPDEST JUMPDEST PUSH2 0x199 PUSH2 0x193 CALLER PUSH2 0x289 JUMP JUMPDEST DUP3 PUSH2 0x2A1 JUMP JUMPDEST PUSH2 0x1DC JUMPI CALLER DUP2 PUSH1 0x40 MLOAD PUSH32 0xBB6C163900000000000000000000000000000000000000000000000000000000 DUP2 MSTORE PUSH1 0x4 ADD PUSH2 0x1D3 SWAP3 SWAP2 SWAP1 PUSH2 0x803 JUMP JUMPDEST PUSH1 0x40 MLOAD DUP1 SWAP2 SUB SWAP1 REVERT JUMPDEST PUSH2 0x1FA CALLER DUP4 PUSH1 0x0 PUSH1 0x2 DUP2 GT ISZERO PUSH2 0x1F5 JUMPI PUSH2 0x1F4 PUSH2 0x7B6 JUMP JUMPDEST JUMPDEST PUSH2 0x2CF JUMP JUMPDEST POP POP JUMP JUMPDEST PUSH1 0x0 PUSH1 0x2 DUP2 GT ISZERO PUSH2 0x212 JUMPI PUSH2 0x211 PUSH2 0x7B6 JUMP JUMPDEST JUMPDEST PUSH2 0x224 PUSH2 0x21E CALLER PUSH2 0x289 JUMP JUMPDEST DUP3 PUSH2 0x2A1 JUMP JUMPDEST PUSH2 0x267 JUMPI CALLER DUP2 PUSH1 0x40 MLOAD PUSH32 0xBB6C163900000000000000000000000000000000000000000000000000000000 DUP2 MSTORE PUSH1 0x4 ADD PUSH2 0x25E SWAP3 SWAP2 SWAP1 PUSH2 0x803 JUMP JUMPDEST PUSH1 0x40 MLOAD DUP1 SWAP2 SUB SWAP1 REVERT JUMPDEST PUSH2 0x285 CALLER DUP4 PUSH1 0x0 PUSH1 0x2 DUP2 GT ISZERO PUSH2 0x280 JUMPI PUSH2 0x27F PUSH2 0x7B6 JUMP JUMPDEST JUMPDEST PUSH2 0x2E6 JUMP JUMPDEST POP POP JUMP JUMPDEST PUSH1 0x0 DUP1 PUSH2 0x295 DUP4 PUSH2 0x2FD JUMP JUMPDEST SWAP1 POP DUP1 SLOAD SWAP2 POP POP SWAP2 SWAP1 POP JUMP JUMPDEST PUSH1 0x0 DUP1 DUP3 PUSH1 0xFF AND PUSH1 0x1 SWAP1 SHL DUP5 AND EQ ISZERO SWAP1 POP SWAP3 SWAP2 POP POP JUMP JUMPDEST PUSH2 0x2CA DUP4 DUP4 DUP4 PUSH1 0xFF AND PUSH1 0x1 SWAP1 SHL PUSH2 0x34F JUMP JUMPDEST POP POP POP JUMP JUMPDEST PUSH2 0x2E1 DUP4 DUP4 DUP4 PUSH1 0xFF AND PUSH1 0x1 SWAP1 SHL PUSH2 0x3BC JUMP JUMPDEST POP POP POP JUMP JUMPDEST PUSH2 0x2F8 DUP4 DUP4 DUP4 PUSH1 0xFF AND PUSH1 0x1 SWAP1 SHL PUSH2 0x486 JUMP JUMPDEST POP POP POP JUMP JUMPDEST PUSH1 0x0 PUSH32 0xDE9BDCA322E1A848F72215BC15CF2C87FE7749145789A9EE281A2A6290AF26AB DUP3 PUSH1 0x40 MLOAD PUSH1 0x20 ADD PUSH2 0x332 SWAP3 SWAP2 SWAP1 PUSH2 0x89F JUMP JUMPDEST PUSH1 0x40 MLOAD PUSH1 0x20 DUP2 DUP4 SUB SUB DUP2 MSTORE SWAP1 PUSH1 0x40 MSTORE DUP1 MLOAD SWAP1 PUSH1 0x20 ADD KECCAK256 SWAP1 POP SWAP2 SWAP1 POP JUMP JUMPDEST DUP1 PUSH2 0x35A DUP5 DUP5 PUSH2 0x4F4 JUMP JUMPDEST EQ PUSH2 0x3A0 JUMPI DUP3 DUP3 DUP3 PUSH1 0x40 MLOAD PUSH32 0x6004FE4000000000000000000000000000000000000000000000000000000000 DUP2 MSTORE PUSH1 0x4 ADD PUSH2 0x397 SWAP4 SWAP3 SWAP2 SWAP1 PUSH2 0x8E4 JUMP JUMPDEST PUSH1 0x40 MLOAD DUP1 SWAP2 SUB SWAP1 REVERT JUMPDEST PUSH2 0x3AC DUP4 DUP4 PUSH1 0x0 PUSH2 0x50E JUMP JUMPDEST PUSH2 0x3B7 DUP4 DUP4 DUP4 PUSH2 0x486 JUMP JUMPDEST POP POP POP JUMP JUMPDEST PUSH2 0x3CE PUSH2 0x3C8 DUP5 PUSH2 0x289 JUMP JUMPDEST DUP3 PUSH2 0x525 JUMP JUMPDEST PUSH2 0x411 JUMPI DUP3 DUP2 PUSH1 0x40 MLOAD PUSH32 0x7FA6FBB400000000000000000000000000000000000000000000000000000000 DUP2 MSTORE PUSH1 0x4 ADD PUSH2 0x408 SWAP3 SWAP2 SWAP1 PUSH2 0x91B JUMP JUMPDEST PUSH1 0x40 MLOAD DUP1 SWAP2 SUB SWAP1 REVERT JUMPDEST PUSH2 0x41C DUP4 DUP4 DUP4 PUSH2 0x50E JUMP JUMPDEST DUP2 PUSH20 0xFFFFFFFFFFFFFFFFFFFFFFFFFFFFFFFFFFFFFFFF AND DUP4 PUSH20 0xFFFFFFFFFFFFFFFFFFFFFFFFFFFFFFFFFFFFFFFF AND PUSH32 0xF7158D1591C2CF17C0E6B9459D86365C47FE0969C79F40EF49E0C437D8F39914 DUP4 PUSH1 0x40 MLOAD PUSH2 0x479 SWAP2 SWAP1 PUSH2 0x944 JUMP JUMPDEST PUSH1 0x40 MLOAD DUP1 SWAP2 SUB SWAP1 LOG3 POP POP POP JUMP JUMPDEST PUSH2 0x498 PUSH2 0x492 DUP5 PUSH2 0x289 JUMP JUMPDEST DUP3 PUSH2 0x525 JUMP JUMPDEST PUSH2 0x4DB JUMPI DUP3 DUP2 PUSH1 0x40 MLOAD PUSH32 0x7FA6FBB400000000000000000000000000000000000000000000000000000000 DUP2 MSTORE PUSH1 0x4 ADD PUSH2 0x4D2 SWAP3 SWAP2 SWAP1 PUSH2 0x91B JUMP JUMPDEST PUSH1 0x40 MLOAD DUP1 SWAP2 SUB SWAP1 REVERT JUMPDEST PUSH2 0x4E5 DUP4 DUP3 PUSH2 0x534 JUMP JUMPDEST PUSH2 0x4EF DUP3 DUP3 PUSH2 0x5A1 JUMP JUMPDEST POP POP POP JUMP JUMPDEST PUSH1 0x0 DUP1 PUSH2 0x501 DUP5 DUP5 PUSH2 0x60D JUMP JUMPDEST SWAP1 POP DUP1 SLOAD SWAP2 POP POP SWAP3 SWAP2 POP POP JUMP JUMPDEST PUSH1 0x0 PUSH2 0x51A DUP5 DUP5 PUSH2 0x60D JUMP JUMPDEST SWAP1 POP DUP2 DUP2 SSTORE POP POP POP POP JUMP JUMPDEST PUSH1 0x0 DUP2 DUP3 DUP5 AND EQ SWAP1 POP SWAP3 SWAP2 POP POP JUMP JUMPDEST PUSH1 0x0 DUP2 NOT PUSH2 0x541 DUP5 PUSH2 0x289 JUMP JUMPDEST AND SWAP1 POP PUSH2 0x54E DUP4 DUP3 PUSH2 0x662 JUMP JUMPDEST DUP3 PUSH20 0xFFFFFFFFFFFFFFFFFFFFFFFFFFFFFFFFFFFFFFFF AND PUSH32 0xCCF920C8FACEE98A9C2A6C6124F2857B87B17E9F3A819BFCC6945196EE77366B DUP4 PUSH1 0x40 MLOAD PUSH2 0x594 SWAP2 SWAP1 PUSH2 0x944 JUMP JUMPDEST PUSH1 0x40 MLOAD DUP1 SWAP2 SUB SWAP1 LOG2 POP POP POP JUMP JUMPDEST PUSH1 0x0 DUP2 PUSH2 0x5AD DUP5 PUSH2 0x289 JUMP JUMPDEST OR SWAP1 POP PUSH2 0x5BA DUP4 DUP3 PUSH2 0x662 JUMP JUMPDEST DUP3 PUSH20 0xFFFFFFFFFFFFFFFFFFFFFFFFFFFFFFFFFFFFFFFF AND PUSH32 0x34E73C57659D4B6809B53DB4FEEE9B007B892E978114EDA420D2991ABA150143 DUP4 PUSH1 0x40 MLOAD PUSH2 0x600 SWAP2 SWAP1 PUSH2 0x944 JUMP JUMPDEST PUSH1 0x40 MLOAD DUP1 SWAP2 SUB SWAP1 LOG2 POP POP POP JUMP JUMPDEST PUSH1 0x0 PUSH32 0xF96E07B2F4FBB81C31567D2B261589AF429E98F0958D53F7E6AD5D63AEA0AB7C DUP4 DUP4 PUSH1 0x40 MLOAD PUSH1 0x20 ADD PUSH2 0x644 SWAP4 SWAP3 SWAP2 SWAP1 PUSH2 0x95F JUMP JUMPDEST PUSH1 0x40 MLOAD PUSH1 0x20 DUP2 DUP4 SUB SUB DUP2 MSTORE SWAP1 PUSH1 0x40 MSTORE DUP1 MLOAD SWAP1 PUSH1 0x20 ADD KECCAK256 SWAP1 POP SWAP3 SWAP2 POP POP JUMP JUMPDEST PUSH1 0x0 PUSH2 0x66D DUP4 PUSH2 0x2FD JUMP JUMPDEST SWAP1 POP DUP2 DUP2 SSTORE POP POP POP JUMP JUMPDEST PUSH1 0x0 DUP1 REVERT JUMPDEST PUSH1 0x0 PUSH20 0xFFFFFFFFFFFFFFFFFFFFFFFFFFFFFFFFFFFFFFFF DUP3 AND SWAP1 POP SWAP2 SWAP1 POP JUMP JUMPDEST PUSH1 0x0 PUSH2 0x6A7 DUP3 PUSH2 0x67C JUMP JUMPDEST SWAP1 POP SWAP2 SWAP1 POP JUMP JUMPDEST PUSH2 0x6B7 DUP2 PUSH2 0x69C JUMP JUMPDEST DUP2 EQ PUSH2 0x6C2 JUMPI PUSH1 0x0 DUP1 REVERT JUMPDEST POP JUMP JUMPDEST PUSH1 0x0 DUP2 CALLDATALOAD SWAP1 POP PUSH2 0x6D4 DUP2 PUSH2 0x6AE JUMP JUMPDEST SWAP3 SWAP2 POP POP JUMP JUMPDEST PUSH1 0x0 PUSH1 0xFF DUP3 AND SWAP1 POP SWAP2 SWAP1 POP JUMP JUMPDEST PUSH2 0x6F0 DUP2 PUSH2 0x6DA JUMP JUMPDEST DUP2 EQ PUSH2 0x6FB JUMPI PUSH1 0x0 DUP1 REVERT JUMPDEST POP JUMP JUMPDEST PUSH1 0x0 DUP2 CALLDATALOAD SWAP1 POP PUSH2 0x70D DUP2 PUSH2 0x6E7 JUMP JUMPDEST SWAP3 SWAP2 POP POP JUMP JUMPDEST PUSH1 0x0 DUP1 PUSH1 0x40 DUP4 DUP6 SUB SLT ISZERO PUSH2 0x72A JUMPI PUSH2 0x729 PUSH2 0x677 JUMP JUMPDEST JUMPDEST PUSH1 0x0 PUSH2 0x738 DUP6 DUP3 DUP7 ADD PUSH2 0x6C5 JUMP JUMPDEST SWAP3 POP POP PUSH1 0x20 PUSH2 0x749 DUP6 DUP3 DUP7 ADD PUSH2 0x6FE JUMP JUMPDEST SWAP2 POP POP SWAP3 POP SWAP3 SWAP1 POP JUMP JUMPDEST PUSH1 0x0 DUP2 ISZERO ISZERO SWAP1 POP SWAP2 SWAP1 POP JUMP JUMPDEST PUSH2 0x768 DUP2 PUSH2 0x753 JUMP JUMPDEST DUP3 MSTORE POP POP JUMP JUMPDEST PUSH1 0x0 PUSH1 0x20 DUP3 ADD SWAP1 POP PUSH2 0x783 PUSH1 0x0 DUP4 ADD DUP5 PUSH2 0x75F JUMP JUMPDEST SWAP3 SWAP2 POP POP JUMP JUMPDEST PUSH1 0x0 PUSH1 0x20 DUP3 DUP5 SUB SLT ISZERO PUSH2 0x79F JUMPI PUSH2 0x79E PUSH2 0x677 JUMP JUMPDEST JUMPDEST PUSH1 0x0 PUSH2 0x7AD DUP5 DUP3 DUP6 ADD PUSH2 0x6C5 JUMP JUMPDEST SWAP2 POP POP SWAP3 SWAP2 POP POP JUMP JUMPDEST PUSH32 0x4E487B7100000000000000000000000000000000000000000000000000000000 PUSH1 0x0 MSTORE PUSH1 0x21 PUSH1 0x4 MSTORE PUSH1 0x24 PUSH1 0x0 REVERT JUMPDEST PUSH2 0x7EE DUP2 PUSH2 0x69C JUMP JUMPDEST DUP3 MSTORE POP POP JUMP JUMPDEST PUSH2 0x7FD DUP2 PUSH2 0x6DA JUMP JUMPDEST DUP3 MSTORE POP POP JUMP JUMPDEST PUSH1 0x0 PUSH1 0x40 DUP3 ADD SWAP1 POP PUSH2 0x818 PUSH1 0x0 DUP4 ADD DUP6 PUSH2 0x7E5 JUMP JUMPDEST PUSH2 0x825 PUSH1 0x20 DUP4 ADD DUP5 PUSH2 0x7F4 JUMP JUMPDEST SWAP4 SWAP3 POP POP POP JUMP JUMPDEST PUSH1 0x0 DUP2 SWAP1 POP SWAP2 SWAP1 POP JUMP JUMPDEST PUSH1 0x0 DUP2 SWAP1 POP SWAP2 SWAP1 POP JUMP JUMPDEST PUSH2 0x851 PUSH2 0x84C DUP3 PUSH2 0x82C JUMP JUMPDEST PUSH2 0x836 JUMP JUMPDEST DUP3 MSTORE POP POP JUMP JUMPDEST PUSH1 0x0 DUP2 PUSH1 0x60 SHL SWAP1 POP SWAP2 SWAP1 POP JUMP JUMPDEST PUSH1 0x0 PUSH2 0x86F DUP3 PUSH2 0x857 JUMP JUMPDEST SWAP1 POP SWAP2 SWAP1 POP JUMP JUMPDEST PUSH1 0x0 PUSH2 0x881 DUP3 PUSH2 0x864 JUMP JUMPDEST SWAP1 POP SWAP2 SWAP1 POP JUMP JUMPDEST PUSH2 0x899 PUSH2 0x894 DUP3 PUSH2 0x69C JUMP JUMPDEST PUSH2 0x876 JUMP JUMPDEST DUP3 MSTORE POP POP JUMP JUMPDEST PUSH1 0x0 PUSH2 0x8AB DUP3 DUP6 PUSH2 0x840 JUMP JUMPDEST PUSH1 0x20 DUP3 ADD SWAP2 POP PUSH2 0x8BB DUP3 DUP5 PUSH2 0x888 JUMP JUMPDEST PUSH1 0x14 DUP3 ADD SWAP2 POP DUP2 SWAP1 POP SWAP4 SWAP3 POP POP POP JUMP JUMPDEST PUSH1 0x0 DUP2 SWAP1 POP SWAP2 SWAP1 POP JUMP JUMPDEST PUSH2 0x8DE DUP2 PUSH2 0x8CB JUMP JUMPDEST DUP3 MSTORE POP POP JUMP JUMPDEST PUSH1 0x0 PUSH1 0x60 DUP3 ADD SWAP1 POP PUSH2 0x8F9 PUSH1 0x0 DUP4 ADD DUP7 PUSH2 0x7E5 JUMP JUMPDEST PUSH2 0x906 PUSH1 0x20 DUP4 ADD DUP6 PUSH2 0x7E5 JUMP JUMPDEST PUSH2 0x913 PUSH1 0x40 DUP4 ADD DUP5 PUSH2 0x8D5 JUMP JUMPDEST SWAP5 SWAP4 POP POP POP POP JUMP JUMPDEST PUSH1 0x0 PUSH1 0x40 DUP3 ADD SWAP1 POP PUSH2 0x930 PUSH1 0x0 DUP4 ADD DUP6 PUSH2 0x7E5 JUMP JUMPDEST PUSH2 0x93D PUSH1 0x20 DUP4 ADD DUP5 PUSH2 0x8D5 JUMP JUMPDEST SWAP4 SWAP3 POP POP POP JUMP JUMPDEST PUSH1 0x0 PUSH1 0x20 DUP3 ADD SWAP1 POP PUSH2 0x959 PUSH1 0x0 DUP4 ADD DUP5 PUSH2 0x8D5 JUMP JUMPDEST SWAP3 SWAP2 POP POP JUMP JUMPDEST PUSH1 0x0 PUSH2 0x96B DUP3 DUP7 PUSH2 0x840 JUMP JUMPDEST PUSH1 0x20 DUP3 ADD SWAP2 POP PUSH2 0x97B DUP3 DUP6 PUSH2 0x888 JUMP JUMPDEST PUSH1 0x14 DUP3 ADD SWAP2 POP PUSH2 0x98B DUP3 DUP5 PUSH2 0x888 JUMP JUMPDEST PUSH1 0x14 DUP3 ADD SWAP2 POP DUP2 SWAP1 POP SWAP5 SWAP4 POP POP POP POP JUMP INVALID LOG2 PUSH5 0x6970667358 0x22 SLT KECCAK256 0x26 NOT 0xD0 SWAP15 DUP1 OR PUSH1 0x37 PREVRANDAO PC POP PUSH26 0x873E282723EE4284D13C26B6EDE58942A9541E3164736F6C6343 STOP ADDMOD XOR STOP CALLER "
        },
        "methodIdentifiers": {
          "acceptMintership(address)": "9c176677",
          "hasRole(address,uint8)": "95a8c58d",
          "isMinter(address)": "aa271e1a",
          "proposeMintership(address)": "b5ef694d",
          "transferMintership(address)": "cf86a95a"
        }
      }
    }
  }
}