{
  "@axelar-network/axelar-gmp-sdk-solidity/contracts/utils/RolesBase.sol": {
    "RolesBase": {
      "abi": [
        {
          "inputs": [
            {
              "internalType": "address",
              "name": "fromAccount",
              "type": "address"
            },
            {
              "internalType": "address",
              "name": "toAccount",
              "type": "address"
            },
            {
              "internalType": "uint256",
              "name": "accountRoles",
              "type": "uint256"
            }
          ],
          "name": "InvalidProposedRoles",
          "type": "error"
        },
        {
          "inputs": [
            {
              "internalType": "address",
              "name": "account",
              "type": "address"
            },
            {
              "internalType": "uint256",
              "name": "accountRoles",
              "type": "uint256"
            }
          ],
          "name": "MissingAllRoles",
          "type": "error"
        },
        {
          "inputs": [
            {
              "internalType": "address",
              "name": "account",
              "type": "address"
            },
            {
              "internalType": "uint256",
              "name": "accountRoles",
              "type": "uint256"
            }
          ],
          "name": "MissingAnyOfRoles",
          "type": "error"
        },
        {
          "inputs": [
            {
              "internalType": "address",
              "name": "account",
              "type": "address"
            },
            {
              "internalType": "uint8",
              "name": "role",
              "type": "uint8"
            }
          ],
          "name": "MissingRole",
          "type": "error"
        },
        {
          "anonymous": false,
          "inputs": [
            {
              "indexed": true,
              "internalType": "address",
              "name": "account",
              "type": "address"
            },
            {
              "indexed": false,
              "internalType": "uint256",
              "name": "accountRoles",
              "type": "uint256"
            }
          ],
          "name": "RolesAdded",
          "type": "event"
        },
        {
          "anonymous": false,
          "inputs": [
            {
              "indexed": true,
              "internalType": "address",
              "name": "fromAccount",
              "type": "address"
            },
            {
              "indexed": true,
              "internalType": "address",
              "name": "toAccount",
              "type": "address"
            },
            {
              "indexed": false,
              "internalType": "uint256",
              "name": "accountRoles",
              "type": "uint256"
            }
          ],
          "name": "RolesProposed",
          "type": "event"
        },
        {
          "anonymous": false,
          "inputs": [
            {
              "indexed": true,
              "internalType": "address",
              "name": "account",
              "type": "address"
            },
            {
              "indexed": false,
              "internalType": "uint256",
              "name": "accountRoles",
              "type": "uint256"
            }
          ],
          "name": "RolesRemoved",
          "type": "event"
        },
        {
          "inputs": [
            {
              "internalType": "address",
              "name": "account",
              "type": "address"
            },
            {
              "internalType": "uint8",
              "name": "role",
              "type": "uint8"
            }
          ],
          "name": "hasRole",
          "outputs": [
            {
              "internalType": "bool",
              "name": "",
              "type": "bool"
            }
          ],
          "stateMutability": "view",
          "type": "function"
        }
      ],
      "evm": {
        "bytecode": {
          "linkReferences": {},
          "object": "608060405234801561001057600080fd5b506102e4806100206000396000f3fe608060405234801561001057600080fd5b506004361061002b5760003560e01c806395a8c58d14610030575b600080fd5b61004a60048036038101906100459190610199565b610060565b60405161005791906101f4565b60405180910390f35b600061007461006e8461007c565b83610094565b905092915050565b600080610088836100ab565b90508054915050919050565b6000808260ff166001901b84161415905092915050565b60007fde9bdca322e1a848f72215bc15cf2c87fe7749145789a9ee281a2a6290af26ab826040516020016100e0929190610282565b604051602081830303815290604052805190602001209050919050565b600080fd5b600073ffffffffffffffffffffffffffffffffffffffff82169050919050565b600061012d82610102565b9050919050565b61013d81610122565b811461014857600080fd5b50565b60008135905061015a81610134565b92915050565b600060ff82169050919050565b61017681610160565b811461018157600080fd5b50565b6000813590506101938161016d565b92915050565b600080604083850312156101b0576101af6100fd565b5b60006101be8582860161014b565b92505060206101cf85828601610184565b9150509250929050565b60008115159050919050565b6101ee816101d9565b82525050565b600060208201905061020960008301846101e5565b92915050565b6000819050919050565b6000819050919050565b61023461022f8261020f565b610219565b82525050565b60008160601b9050919050565b60006102528261023a565b9050919050565b600061026482610247565b9050919050565b61027c61027782610122565b610259565b82525050565b600061028e8285610223565b60208201915061029e828461026b565b601482019150819050939250505056fea26469706673582212203989e9907ef7bbaac0f896a54f0f4ff2d277265ed80fc13649adcde470df029664736f6c63430008180033",
          "opcodes": "PUSH1 0x80 PUSH1 0x40 MSTORE CALLVALUE DUP1 ISZERO PUSH2 0x10 JUMPI PUSH1 0x0 DUP1 REVERT JUMPDEST POP PUSH2 0x2E4 DUP1 PUSH2 0x20 PUSH1 0x0 CODECOPY PUSH1 0x0 RETURN INVALID PUSH1 0x80 PUSH1 0x40 MSTORE CALLVALUE DUP1 ISZERO PUSH2 0x10 JUMPI PUSH1 0x0 DUP1 REVERT JUMPDEST POP PUSH1 0x4 CALLDATASIZE LT PUSH2 0x2B JUMPI PUSH1 0x0 CALLDATALOAD PUSH1 0xE0 SHR DUP1 PUSH4 0x95A8C58D EQ PUSH2 0x30 JUMPI JUMPDEST PUSH1 0x0 DUP1 REVERT JUMPDEST PUSH2 0x4A PUSH1 0x4 DUP1 CALLDATASIZE SUB DUP2 ADD SWAP1 PUSH2 0x45 SWAP2 SWAP1 PUSH2 0x199 JUMP JUMPDEST PUSH2 0x60 JUMP JUMPDEST PUSH1 0x40 MLOAD PUSH2 0x57 SWAP2 SWAP1 PUSH2 0x1F4 JUMP JUMPDEST PUSH1 0x40 MLOAD DUP1 SWAP2 SUB SWAP1 RETURN JUMPDEST PUSH1 0x0 PUSH2 0x74 PUSH2 0x6E DUP5 PUSH2 0x7C JUMP JUMPDEST DUP4 PUSH2 0x94 JUMP JUMPDEST SWAP1 POP SWAP3 SWAP2 POP POP JUMP JUMPDEST PUSH1 0x0 DUP1 PUSH2 0x88 DUP4 PUSH2 0xAB JUMP JUMPDEST SWAP1 POP DUP1 SLOAD SWAP2 POP POP SWAP2 SWAP1 POP JUMP JUMPDEST PUSH1 0x0 DUP1 DUP3 PUSH1 0xFF AND PUSH1 0x1 SWAP1 SHL DUP5 AND EQ ISZERO SWAP1 POP SWAP3 SWAP2 POP POP JUMP JUMPDEST PUSH1 0x0 PUSH32 0xDE9BDCA322E1A848F72215BC15CF2C87FE7749145789A9EE281A2A6290AF26AB DUP3 PUSH1 0x40 MLOAD PUSH1 0x20 ADD PUSH2 0xE0 SWAP3 SWAP2 SWAP1 PUSH2 0x282 JUMP JUMPDEST PUSH1 0x40 MLOAD PUSH1 0x20 DUP2 DUP4 SUB SUB DUP2 MSTORE SWAP1 PUSH1 0x40 MSTORE DUP1 MLOAD SWAP1 PUSH1 0x20 ADD KECCAK256 SWAP1 POP SWAP2 SWAP1 POP JUMP JUMPDEST PUSH1 0x0 DUP1 REVERT JUMPDEST PUSH1 0x0 PUSH20 0xFFFFFFFFFFFFFFFFFFFFFFFFFFFFFFFFFFFFFFFF DUP3 AND SWAP1 POP SWAP2 SWAP1 POP JUMP JUMPDEST PUSH1 0x0 PUSH2 0x12D DUP3 PUSH2 0x102 JUMP JUMPDEST SWAP1 POP SWAP2 SWAP1 POP JUMP JUMPDEST PUSH2 0x13D DUP2 PUSH2 0x122 JUMP JUMPDEST DUP2 EQ PUSH2 0x148 JUMPI PUSH1 0x0 DUP1 REVERT JUMPDEST POP JUMP JUMPDEST PUSH1 0x0 DUP2 CALLDATALOAD SWAP1 POP PUSH2 0x15A DUP2 PUSH2 0x134 JUMP JUMPDEST SWAP3 SWAP2 POP POP JUMP JUMPDEST PUSH1 0x0 PUSH1 0xFF DUP3 AND SWAP1 POP SWAP2 SWAP1 POP JUMP JUMPDEST PUSH2 0x176 DUP2 PUSH2 0x160 JUMP JUMPDEST DUP2 EQ PUSH2 0x181 JUMPI PUSH1 0x0 DUP1 REVERT JUMPDEST POP JUMP JUMPDEST PUSH1 0x0 DUP2 CALLDATALOAD SWAP1 POP PUSH2 0x193 DUP2 PUSH2 0x16D JUMP JUMPDEST SWAP3 SWAP2 POP POP JUMP JUMPDEST PUSH1 0x0 DUP1 PUSH1 0x40 DUP4 DUP6 SUB SLT ISZERO PUSH2 0x1B0 JUMPI PUSH2 0x1AF PUSH2 0xFD JUMP JUMPDEST JUMPDEST PUSH1 0x0 PUSH2 0x1BE DUP6 DUP3 DUP7 ADD PUSH2 0x14B JUMP JUMPDEST SWAP3 POP POP PUSH1 0x20 PUSH2 0x1CF DUP6 DUP3 DUP7 ADD PUSH2 0x184 JUMP JUMPDEST SWAP2 POP POP SWAP3 POP SWAP3 SWAP1 POP JUMP JUMPDEST PUSH1 0x0 DUP2 ISZERO ISZERO SWAP1 POP SWAP2 SWAP1 POP JUMP JUMPDEST PUSH2 0x1EE DUP2 PUSH2 0x1D9 JUMP JUMPDEST DUP3 MSTORE POP POP JUMP JUMPDEST PUSH1 0x0 PUSH1 0x20 DUP3 ADD SWAP1 POP PUSH2 0x209 PUSH1 0x0 DUP4 ADD DUP5 PUSH2 0x1E5 JUMP JUMPDEST SWAP3 SWAP2 POP POP JUMP JUMPDEST PUSH1 0x0 DUP2 SWAP1 POP SWAP2 SWAP1 POP JUMP JUMPDEST PUSH1 0x0 DUP2 SWAP1 POP SWAP2 SWAP1 POP JUMP JUMPDEST PUSH2 0x234 PUSH2 0x22F DUP3 PUSH2 0x20F JUMP JUMPDEST PUSH2 0x219 JUMP JUMPDEST DUP3 MSTORE POP POP JUMP JUMPDEST PUSH1 0x0 DUP2 PUSH1 0x60 SHL SWAP1 POP SWAP2 SWAP1 POP JUMP JUMPDEST PUSH1 0x0 PUSH2 0x252 DUP3 PUSH2 0x23A JUMP JUMPDEST SWAP1 POP SWAP2 SWAP1 POP JUMP JUMPDEST PUSH1 0x0 PUSH2 0x264 DUP3 PUSH2 0x247 JUMP JUMPDEST SWAP1 POP SWAP2 SWAP1 POP JUMP JUMPDEST PUSH2 0x27C PUSH2 0x277 DUP3 PUSH2 0x122 JUMP JUMPDEST PUSH2 0x259 JUMP JUMPDEST DUP3 MSTORE POP POP JUMP JUMPDEST PUSH1 0x0 PUSH2 0x28E DUP3 DUP6 PUSH2 0x223 JUMP JUMPDEST PUSH1 0x20 DUP3 ADD SWAP2 POP PUSH2 0x29E DUP3 DUP5 PUSH2 0x26B JUMP JUMPDEST PUSH1 0x14 DUP3 ADD SWAP2 POP DUP2 SWAP1 POP SWAP4 SWAP3 POP POP POP JUMP INVALID LOG2 PUSH5 0x6970667358 0x22 SLT KECCAK256 CODECOPY DUP10 0xE9 SWAP1 PUSH31 0xF7BBAAC0F896A54F0F4FF2D277265ED80FC13649ADCDE470DF029664736F6C PUSH4 0x43000818 STOP CALLER "
        },
        "methodIdentifiers": {
          "hasRole(address,uint8)": "95a8c58d"
        }
      }
    }
  }
}